{
  "_format": "hh-sol-artifact-1",
  "contractName": "Bank",
  "sourceName": "contracts/Bank.sol",
  "abi": [
    {
      "inputs": [],
      "stateMutability": "nonpayable",
      "type": "constructor"
    },
    {
      "anonymous": false,
      "inputs": [
        {
          "indexed": false,
          "internalType": "address",
          "name": "account",
          "type": "address"
        }
      ],
      "name": "Paused",
      "type": "event"
    },
    {
      "anonymous": false,
      "inputs": [
        {
          "indexed": false,
          "internalType": "address",
          "name": "account",
          "type": "address"
        }
      ],
      "name": "Unpaused",
      "type": "event"
    },
    {
      "anonymous": false,
      "inputs": [
        {
          "indexed": false,
          "internalType": "address",
          "name": "token",
          "type": "address"
        },
        {
          "indexed": true,
          "internalType": "address",
          "name": "owner",
          "type": "address"
        },
        {
          "indexed": false,
          "internalType": "uint256",
          "name": "amount",
          "type": "uint256"
        }
      ],
      "name": "_deposit_erc20",
      "type": "event"
    },
    {
      "anonymous": false,
      "inputs": [
        {
          "indexed": true,
          "internalType": "address",
          "name": "_owner",
          "type": "address"
        },
        {
          "indexed": false,
          "internalType": "uint256",
          "name": "amount",
          "type": "uint256"
        }
      ],
      "name": "_deposit_ether",
      "type": "event"
    },
    {
      "anonymous": false,
      "inputs": [
        {
          "indexed": true,
          "internalType": "address",
          "name": "_to",
          "type": "address"
        },
        {
          "indexed": true,
          "internalType": "address",
          "name": "_tokenAddress",
          "type": "address"
        },
        {
          "indexed": false,
          "internalType": "uint256",
          "name": "_amt",
          "type": "uint256"
        }
      ],
      "name": "_recover",
      "type": "event"
    },
    {
      "anonymous": false,
      "inputs": [
        {
          "indexed": false,
          "internalType": "address",
          "name": "token",
          "type": "address"
        },
        {
          "indexed": true,
          "internalType": "address",
          "name": "_owner",
          "type": "address"
        },
        {
          "indexed": true,
          "internalType": "address",
          "name": "to",
          "type": "address"
        },
        {
          "indexed": false,
          "internalType": "uint256",
          "name": "amount",
          "type": "uint256"
        }
      ],
      "name": "_transfer_erc20",
      "type": "event"
    },
    {
      "anonymous": false,
      "inputs": [
        {
          "indexed": true,
          "internalType": "address",
          "name": "from",
          "type": "address"
        },
        {
          "indexed": true,
          "internalType": "address",
          "name": "to",
          "type": "address"
        },
        {
          "indexed": false,
          "internalType": "uint256",
          "name": "amount",
          "type": "uint256"
        }
      ],
      "name": "_transfer_ether",
      "type": "event"
    },
    {
      "inputs": [],
      "name": "deposit",
      "outputs": [],
      "stateMutability": "payable",
      "type": "function"
    },
    {
      "inputs": [
        {
          "internalType": "address",
          "name": "_tokenAddress",
          "type": "address"
        },
        {
          "internalType": "uint256",
          "name": "amount",
          "type": "uint256"
        }
      ],
      "name": "depositERC20Token",
      "outputs": [],
      "stateMutability": "nonpayable",
      "type": "function"
    },
    {
      "inputs": [],
      "name": "getBalance",
      "outputs": [
        {
          "internalType": "uint256",
          "name": "",
          "type": "uint256"
        }
      ],
      "stateMutability": "view",
      "type": "function"
    },
    {
      "inputs": [
        {
          "internalType": "address",
          "name": "_tokenAddress",
          "type": "address"
        }
      ],
      "name": "getERC20TokenBalance",
      "outputs": [
        {
          "internalType": "uint256",
          "name": "",
          "type": "uint256"
        }
      ],
      "stateMutability": "view",
      "type": "function"
    },
    {
      "inputs": [],
      "name": "getWalletBalance",
      "outputs": [
        {
          "internalType": "uint256",
          "name": "",
          "type": "uint256"
        }
      ],
      "stateMutability": "view",
      "type": "function"
    },
    {
      "inputs": [],
      "name": "owner",
      "outputs": [
        {
          "internalType": "address",
          "name": "",
          "type": "address"
        }
      ],
      "stateMutability": "view",
      "type": "function"
    },
    {
      "inputs": [],
      "name": "pause",
      "outputs": [],
      "stateMutability": "nonpayable",
      "type": "function"
    },
    {
      "inputs": [],
      "name": "paused",
      "outputs": [
        {
          "internalType": "bool",
          "name": "",
          "type": "bool"
        }
      ],
      "stateMutability": "view",
      "type": "function"
    },
    {
      "inputs": [
        {
          "internalType": "address",
          "name": "_to",
          "type": "address"
        },
        {
          "internalType": "address",
          "name": "_tokenAddress",
          "type": "address"
        },
        {
          "internalType": "uint256",
          "name": "_amt",
          "type": "uint256"
        }
      ],
      "name": "recoverTrappedMoney",
      "outputs": [
        {
          "internalType": "bool",
          "name": "",
          "type": "bool"
        }
      ],
      "stateMutability": "nonpayable",
      "type": "function"
    },
    {
      "inputs": [
        {
          "internalType": "address",
          "name": "_to",
          "type": "address"
        },
        {
          "internalType": "uint256",
          "name": "_amt",
          "type": "uint256"
        }
      ],
      "name": "transfer",
      "outputs": [],
      "stateMutability": "payable",
      "type": "function"
    },
    {
      "inputs": [
        {
          "internalType": "address",
          "name": "_to",
          "type": "address"
        },
        {
          "internalType": "address",
          "name": "_tokenAddress",
          "type": "address"
        },
        {
          "internalType": "uint256",
          "name": "_amount",
          "type": "uint256"
        }
      ],
      "name": "transferERC20Token",
      "outputs": [],
      "stateMutability": "nonpayable",
      "type": "function"
    },
    {
      "inputs": [],
      "name": "unpause",
      "outputs": [],
      "stateMutability": "nonpayable",
      "type": "function"
    },
    {
      "stateMutability": "payable",
      "type": "receive"
    }
  ],
  "bytecode": "0x608060405234801561001057600080fd5b5060008060006101000a81548160ff02191690831515021790555033600060016101000a81548173ffffffffffffffffffffffffffffffffffffffff021916908373ffffffffffffffffffffffffffffffffffffffff160217905550611a498061007b6000396000f3fe6080604052600436106100ab5760003560e01c80638456cb59116100645780638456cb59146101bd5780638da5cb5b146101d457806392940bf9146101ff578063a9059cbb14610228578063c716389a14610244578063d0e30db014610281576100ba565b806312065fe0146100bf5780632039d9fd146100ea578063329a27e7146101135780633f4ba83a1461013e5780635c975abb14610155578063668cd9f414610180576100ba565b366100ba576100b861028b565b005b600080fd5b3480156100cb57600080fd5b506100d461037c565b6040516100e191906110fe565b60405180910390f35b3480156100f657600080fd5b50610111600480360381019061010c91906111a8565b6103c3565b005b34801561011f57600080fd5b50610128610586565b60405161013591906110fe565b60405180910390f35b34801561014a57600080fd5b5061015361058e565b005b34801561016157600080fd5b5061016a610628565b6040516101779190611203565b60405180910390f35b34801561018c57600080fd5b506101a760048036038101906101a2919061121e565b61063e565b6040516101b49190611203565b60405180910390f35b3480156101c957600080fd5b506101d2610852565b005b3480156101e057600080fd5b506101e96108ec565b6040516101f69190611280565b60405180910390f35b34801561020b57600080fd5b506102266004803603810190610221919061121e565b610912565b005b610242600480360381019061023d91906111a8565b610c1f565b005b34801561025057600080fd5b5061026b6004803603810190610266919061129b565b610f00565b60405161027891906110fe565b60405180910390f35b61028961028b565b005b610293610f86565b600034116102d6576040517f08c379a00000000000000000000000000000000000000000000000000000000081526004016102cd90611325565b60405180910390fd5b34600160003373ffffffffffffffffffffffffffffffffffffffff1673ffffffffffffffffffffffffffffffffffffffff16815260200190815260200160002060008282546103259190611374565b925050819055503373ffffffffffffffffffffffffffffffffffffffff167ffc99f8e77b719d1c40f0008b15d4a4526e9a855621ffede2675e4f7fc15d5dea3460405161037291906110fe565b60405180910390a2565b6000600160003373ffffffffffffffffffffffffffffffffffffffff1673ffffffffffffffffffffffffffffffffffffffff16815260200190815260200160002054905090565b6103cb610f86565b60008273ffffffffffffffffffffffffffffffffffffffff166323b872dd3330856040518463ffffffff1660e01b815260040161040a939291906113ca565b602060405180830381600087803b15801561042457600080fd5b505af1158015610438573d6000803e3d6000fd5b505050506040513d601f19601f8201168201806040525081019061045c919061142d565b90508061049e576040517f08c379a0000000000000000000000000000000000000000000000000000000008152600401610495906114a6565b60405180910390fd5b81600260003373ffffffffffffffffffffffffffffffffffffffff1673ffffffffffffffffffffffffffffffffffffffff16815260200190815260200160002060008573ffffffffffffffffffffffffffffffffffffffff1673ffffffffffffffffffffffffffffffffffffffff168152602001908152602001600020600082825461052a9190611374565b925050819055503373ffffffffffffffffffffffffffffffffffffffff167f235a65de3f9252b088c6171fcfa86a262dfd9f61544579760a2fe92b691a68f884846040516105799291906114c6565b60405180910390a2505050565b600047905090565b600060019054906101000a900473ffffffffffffffffffffffffffffffffffffffff1673ffffffffffffffffffffffffffffffffffffffff163373ffffffffffffffffffffffffffffffffffffffff161461061e576040517f08c379a000000000000000000000000000000000000000000000000000000000815260040161061590611561565b60405180910390fd5b610626610fd0565b565b60008060009054906101000a900460ff16905090565b60008060019054906101000a900473ffffffffffffffffffffffffffffffffffffffff1673ffffffffffffffffffffffffffffffffffffffff163373ffffffffffffffffffffffffffffffffffffffff16146106cf576040517f08c379a00000000000000000000000000000000000000000000000000000000081526004016106c690611561565b60405180910390fd5b600073ffffffffffffffffffffffffffffffffffffffff168473ffffffffffffffffffffffffffffffffffffffff16141561073f576040517f08c379a0000000000000000000000000000000000000000000000000000000008152600401610736906115f3565b60405180910390fd5b60008373ffffffffffffffffffffffffffffffffffffffff1663a9059cbb86856040518363ffffffff1660e01b815260040161077c9291906114c6565b602060405180830381600087803b15801561079657600080fd5b505af11580156107aa573d6000803e3d6000fd5b505050506040513d601f19601f820116820180604052508101906107ce919061142d565b90508015610845578373ffffffffffffffffffffffffffffffffffffffff168573ffffffffffffffffffffffffffffffffffffffff167ff533109fa753f8805497e459b0e7bf3e3b1203fa9e217eef6ad2ab64f70df5608560405161083391906110fe565b60405180910390a3600191505061084b565b60009150505b9392505050565b600060019054906101000a900473ffffffffffffffffffffffffffffffffffffffff1673ffffffffffffffffffffffffffffffffffffffff163373ffffffffffffffffffffffffffffffffffffffff16146108e2576040517f08c379a00000000000000000000000000000000000000000000000000000000081526004016108d990611561565b60405180910390fd5b6108ea611032565b565b600060019054906101000a900473ffffffffffffffffffffffffffffffffffffffff1681565b61091a610f86565b8273ffffffffffffffffffffffffffffffffffffffff163373ffffffffffffffffffffffffffffffffffffffff161415610989576040517f08c379a00000000000000000000000000000000000000000000000000000000081526004016109809061165f565b60405180910390fd5b6000600260003373ffffffffffffffffffffffffffffffffffffffff1673ffffffffffffffffffffffffffffffffffffffff16815260200190815260200160002060008473ffffffffffffffffffffffffffffffffffffffff1673ffffffffffffffffffffffffffffffffffffffff16815260200190815260200160002054905081811015610a4d576040517f08c379a0000000000000000000000000000000000000000000000000000000008152600401610a44906116cb565b60405180910390fd5b81600260003373ffffffffffffffffffffffffffffffffffffffff1673ffffffffffffffffffffffffffffffffffffffff16815260200190815260200160002060008573ffffffffffffffffffffffffffffffffffffffff1673ffffffffffffffffffffffffffffffffffffffff1681526020019081526020016000206000828254610ad991906116eb565b9250508190555060008373ffffffffffffffffffffffffffffffffffffffff1663a9059cbb86856040518363ffffffff1660e01b8152600401610b1d9291906114c6565b602060405180830381600087803b158015610b3757600080fd5b505af1158015610b4b573d6000803e3d6000fd5b505050506040513d601f19601f82011682018060405250810190610b6f919061142d565b905080610bb1576040517f08c379a0000000000000000000000000000000000000000000000000000000008152600401610ba89061176b565b60405180910390fd5b8473ffffffffffffffffffffffffffffffffffffffff163373ffffffffffffffffffffffffffffffffffffffff167fb4bf5f232dd2dc443f3f09eff819d2373627ce28d04acef52471344b86e32d578686604051610c109291906114c6565b60405180910390a35050505050565b80600073ffffffffffffffffffffffffffffffffffffffff163373ffffffffffffffffffffffffffffffffffffffff161415610c90576040517f08c379a0000000000000000000000000000000000000000000000000000000008152600401610c87906117d7565b60405180910390fd5b80600160003373ffffffffffffffffffffffffffffffffffffffff1673ffffffffffffffffffffffffffffffffffffffff168152602001908152602001600020541015610d12576040517f08c379a0000000000000000000000000000000000000000000000000000000008152600401610d0990611843565b60405180910390fd5b610d1a610f86565b600073ffffffffffffffffffffffffffffffffffffffff168373ffffffffffffffffffffffffffffffffffffffff161415610d8a576040517f08c379a0000000000000000000000000000000000000000000000000000000008152600401610d81906118af565b60405180910390fd5b3373ffffffffffffffffffffffffffffffffffffffff168373ffffffffffffffffffffffffffffffffffffffff161415610df9576040517f08c379a0000000000000000000000000000000000000000000000000000000008152600401610df09061191b565b60405180910390fd5b81600160003373ffffffffffffffffffffffffffffffffffffffff1673ffffffffffffffffffffffffffffffffffffffff1681526020019081526020016000206000828254610e4891906116eb565b925050819055508273ffffffffffffffffffffffffffffffffffffffff166108fc839081150290604051600060405180830381858888f19350505050158015610e95573d6000803e3d6000fd5b508273ffffffffffffffffffffffffffffffffffffffff163373ffffffffffffffffffffffffffffffffffffffff167f0a5376e1dcc128bf110ad0f22c347e0725790e9ec9667c096b394bc127e80bfb84604051610ef391906110fe565b60405180910390a3505050565b6000600260003373ffffffffffffffffffffffffffffffffffffffff1673ffffffffffffffffffffffffffffffffffffffff16815260200190815260200160002060008373ffffffffffffffffffffffffffffffffffffffff1673ffffffffffffffffffffffffffffffffffffffff168152602001908152602001600020549050919050565b610f8e610628565b15610fce576040517f08c379a0000000000000000000000000000000000000000000000000000000008152600401610fc590611987565b60405180910390fd5b565b610fd8611094565b60008060006101000a81548160ff0219169083151502179055507f5db9ee0a495bf2e6ff9c91a7834c1ba4fdd244a5e8aa4e537bd38aeae4b073aa61101b6110dd565b6040516110289190611280565b60405180910390a1565b61103a610f86565b60016000806101000a81548160ff0219169083151502179055507f62e78cea01bee320cd4e420270b5ea74000d11b0c9f74754ebdbfc544b05a25861107d6110dd565b60405161108a9190611280565b60405180910390a1565b61109c610628565b6110db576040517f08c379a00000000000000000000000000000000000000000000000000000000081526004016110d2906119f3565b60405180910390fd5b565b600033905090565b6000819050919050565b6110f8816110e5565b82525050565b600060208201905061111360008301846110ef565b92915050565b600080fd5b600073ffffffffffffffffffffffffffffffffffffffff82169050919050565b60006111498261111e565b9050919050565b6111598161113e565b811461116457600080fd5b50565b60008135905061117681611150565b92915050565b611185816110e5565b811461119057600080fd5b50565b6000813590506111a28161117c565b92915050565b600080604083850312156111bf576111be611119565b5b60006111cd85828601611167565b92505060206111de85828601611193565b9150509250929050565b60008115159050919050565b6111fd816111e8565b82525050565b600060208201905061121860008301846111f4565b92915050565b60008060006060848603121561123757611236611119565b5b600061124586828701611167565b935050602061125686828701611167565b925050604061126786828701611193565b9150509250925092565b61127a8161113e565b82525050565b60006020820190506112956000830184611271565b92915050565b6000602082840312156112b1576112b0611119565b5b60006112bf84828501611167565b91505092915050565b600082825260208201905092915050565b7f5a65726f206e6f7420616c6c6f77656400000000000000000000000000000000600082015250565b600061130f6010836112c8565b915061131a826112d9565b602082019050919050565b6000602082019050818103600083015261133e81611302565b9050919050565b7f4e487b7100000000000000000000000000000000000000000000000000000000600052601160045260246000fd5b600061137f826110e5565b915061138a836110e5565b9250827fffffffffffffffffffffffffffffffffffffffffffffffffffffffffffffffff038211156113bf576113be611345565b5b828201905092915050565b60006060820190506113df6000830186611271565b6113ec6020830185611271565b6113f960408301846110ef565b949350505050565b61140a816111e8565b811461141557600080fd5b50565b60008151905061142781611401565b92915050565b60006020828403121561144357611442611119565b5b600061145184828501611418565b91505092915050565b7f5472616e73666572206661696c65640000000000000000000000000000000000600082015250565b6000611490600f836112c8565b915061149b8261145a565b602082019050919050565b600060208201905081810360008301526114bf81611483565b9050919050565b60006040820190506114db6000830185611271565b6114e860208301846110ef565b9392505050565b7f596f752063616e277420706572666f726d2074686973207472616e736163746960008201527f6f6e000000000000000000000000000000000000000000000000000000000000602082015250565b600061154b6022836112c8565b9150611556826114ef565b604082019050919050565b6000602082019050818103600083015261157a8161153e565b9050919050565b7f45524332303a207472616e7366657220746f20746865207a65726f206164647260008201527f6573730000000000000000000000000000000000000000000000000000000000602082015250565b60006115dd6023836112c8565b91506115e882611581565b604082019050919050565b6000602082019050818103600083015261160c816115d0565b9050919050565b7f73656e6465722063616e27742062652072656369657665720000000000000000600082015250565b60006116496018836112c8565b915061165482611613565b602082019050919050565b600060208201905081810360008301526116788161163c565b9050919050565b7f496e73756666696369656e742066756e64000000000000000000000000000000600082015250565b60006116b56011836112c8565b91506116c08261167f565b602082019050919050565b600060208201905081810360008301526116e4816116a8565b9050919050565b60006116f6826110e5565b9150611701836110e5565b92508282101561171457611713611345565b5b828203905092915050565b7f5769746864726177204572726f72000000000000000000000000000000000000600082015250565b6000611755600e836112c8565b91506117608261171f565b602082019050919050565b6000602082019050818103600083015261178481611748565b9050919050565b7f596f752063616e27742077697468647261772068657265212100000000000000600082015250565b60006117c16019836112c8565b91506117cc8261178b565b602082019050919050565b600060208201905081810360008301526117f0816117b4565b9050919050565b7f496e73756666696365696e742062616c616e6365000000000000000000000000600082015250565b600061182d6014836112c8565b9150611838826117f7565b602082019050919050565b6000602082019050818103600083015261185c81611820565b9050919050565b7f496e76616c696420616464726573730000000000000000000000000000000000600082015250565b6000611899600f836112c8565b91506118a482611863565b602082019050919050565b600060208201905081810360008301526118c88161188c565b9050919050565b7f7468697320616464726573732063616e2774207370656e6420746f6b656e7300600082015250565b6000611905601f836112c8565b9150611910826118cf565b602082019050919050565b60006020820190508181036000830152611934816118f8565b9050919050565b7f5061757361626c653a2070617573656400000000000000000000000000000000600082015250565b60006119716010836112c8565b915061197c8261193b565b602082019050919050565b600060208201905081810360008301526119a081611964565b9050919050565b7f5061757361626c653a206e6f7420706175736564000000000000000000000000600082015250565b60006119dd6014836112c8565b91506119e8826119a7565b602082019050919050565b60006020820190508181036000830152611a0c816119d0565b905091905056fea2646970667358221220e460b78c2c9ab73fd5081d783c26326d34458e61db52ec41806d441f73acadb964736f6c63430008090033",
  "linkReferences": {},
  "deployedLinkReferences": {}
}